{
  "contractName": "election",
  "abi": [
    {
      "inputs": [
        {
          "internalType": "uint256",
          "name": "no",
          "type": "uint256"
        }
      ],
      "stateMutability": "nonpayable",
      "type": "constructor"
    },
    {
      "inputs": [],
      "name": "owner",
      "outputs": [
        {
          "internalType": "address",
          "name": "",
          "type": "address"
        }
      ],
      "stateMutability": "view",
      "type": "function",
      "constant": true
    },
    {
      "inputs": [],
      "name": "people",
      "outputs": [
        {
          "internalType": "uint256",
          "name": "",
          "type": "uint256"
        }
      ],
      "stateMutability": "view",
      "type": "function",
      "constant": true
    },
    {
      "inputs": [
        {
          "internalType": "uint256",
          "name": "",
          "type": "uint256"
        }
      ],
      "name": "standing",
      "outputs": [
        {
          "internalType": "address",
          "name": "",
          "type": "address"
        }
      ],
      "stateMutability": "view",
      "type": "function",
      "constant": true
    },
    {
      "inputs": [],
      "name": "votecount",
      "outputs": [
        {
          "internalType": "uint256",
          "name": "",
          "type": "uint256"
        }
      ],
      "stateMutability": "view",
      "type": "function",
      "constant": true
    },
    {
      "inputs": [
        {
          "internalType": "address",
          "name": "addr",
          "type": "address"
        }
      ],
      "name": "register",
      "outputs": [],
      "stateMutability": "nonpayable",
      "type": "function"
    },
    {
      "inputs": [
        {
          "internalType": "address",
          "name": "add",
          "type": "address"
        }
      ],
      "name": "vote",
      "outputs": [],
      "stateMutability": "nonpayable",
      "type": "function"
    },
    {
      "inputs": [],
      "name": "peple",
      "outputs": [
        {
          "internalType": "uint256",
          "name": "",
          "type": "uint256"
        }
      ],
      "stateMutability": "view",
      "type": "function",
      "constant": true
    },
    {
      "inputs": [],
      "name": "own",
      "outputs": [
        {
          "internalType": "address",
          "name": "",
          "type": "address"
        }
      ],
      "stateMutability": "nonpayable",
      "type": "function"
    },
    {
      "inputs": [],
      "name": "winner",
      "outputs": [
        {
          "internalType": "address",
          "name": "winneraddress",
          "type": "address"
        }
      ],
      "stateMutability": "view",
      "type": "function",
      "constant": true
    }
  ],
  "bytecode": "0x608060405234801561001057600080fd5b50604051610b30380380610b30833981810160405281019061003291906100bb565b33600160006101000a81548173ffffffffffffffffffffffffffffffffffffffff021916908373ffffffffffffffffffffffffffffffffffffffff16021790555080600281905550506100e8565b600080fd5b6000819050919050565b61009881610085565b81146100a357600080fd5b50565b6000815190506100b58161008f565b92915050565b6000602082840312156100d1576100d0610080565b5b60006100df848285016100a6565b91505092915050565b610a39806100f76000396000f3fe608060405234801561001057600080fd5b50600436106100935760003560e01c80638da5cb5b116100665780638da5cb5b1461010c578063969dde691461012a57806399cdee0e14610148578063dfbf53ae14610166578063e73f3e5d1461018457610093565b80633cd5c5ad146100985780634420e486146100b65780636dd7d8ea146100d2578063783f6af5146100ee575b600080fd5b6100a06101b4565b6040516100ad91906106ef565b60405180910390f35b6100d060048036038101906100cb919061076d565b6101be565b005b6100ec60048036038101906100e7919061076d565b6102f9565b005b6100f6610438565b60405161010391906106ef565b60405180910390f35b61011461043e565b60405161012191906107a9565b60405180910390f35b610132610464565b60405161013f91906106ef565b60405180910390f35b61015061046a565b60405161015d91906107a9565b60405180910390f35b61016e610494565b60405161017b91906107a9565b60405180910390f35b61019e600480360381019061019991906107f0565b610697565b6040516101ab91906107a9565b60405180910390f35b6000600254905090565b600160009054906101000a900473ffffffffffffffffffffffffffffffffffffffff1673ffffffffffffffffffffffffffffffffffffffff163373ffffffffffffffffffffffffffffffffffffffff161461024e576040517f08c379a00000000000000000000000000000000000000000000000000000000081526004016102459061087a565b60405180910390fd5b6000600360008373ffffffffffffffffffffffffffffffffffffffff1673ffffffffffffffffffffffffffffffffffffffff168152602001908152602001600020819055506005819080600181540180825580915050600190039060005260206000200160009091909190916101000a81548173ffffffffffffffffffffffffffffffffffffffff021916908373ffffffffffffffffffffffffffffffffffffffff16021790555050565b600460003373ffffffffffffffffffffffffffffffffffffffff1673ffffffffffffffffffffffffffffffffffffffff16815260200190815260200160002060009054906101000a900460ff1615610386576040517f08c379a000000000000000000000000000000000000000000000000000000000815260040161037d906108e6565b60405180910390fd5b6001600360008373ffffffffffffffffffffffffffffffffffffffff1673ffffffffffffffffffffffffffffffffffffffff16815260200190815260200160002060008282546103d69190610935565b925050819055506001600460003373ffffffffffffffffffffffffffffffffffffffff1673ffffffffffffffffffffffffffffffffffffffff16815260200190815260200160002060006101000a81548160ff02191690831515021790555050565b60025481565b600160009054906101000a900473ffffffffffffffffffffffffffffffffffffffff1681565b60005481565b6000600160009054906101000a900473ffffffffffffffffffffffffffffffffffffffff16905090565b60008060009050600160009054906101000a900473ffffffffffffffffffffffffffffffffffffffff1673ffffffffffffffffffffffffffffffffffffffff163373ffffffffffffffffffffffffffffffffffffffff161461052b576040517f08c379a00000000000000000000000000000000000000000000000000000000081526004016105229061087a565b60405180910390fd5b60005b600254811015610692578160036000600584815481106105515761055061098b565b5b9060005260206000200160009054906101000a900473ffffffffffffffffffffffffffffffffffffffff1673ffffffffffffffffffffffffffffffffffffffff1673ffffffffffffffffffffffffffffffffffffffff16815260200190815260200160002054111561067f5760036000600583815481106105d5576105d461098b565b5b9060005260206000200160009054906101000a900473ffffffffffffffffffffffffffffffffffffffff1673ffffffffffffffffffffffffffffffffffffffff1673ffffffffffffffffffffffffffffffffffffffff168152602001908152602001600020549150600581815481106106515761065061098b565b5b9060005260206000200160009054906101000a900473ffffffffffffffffffffffffffffffffffffffff1692505b808061068a906109ba565b91505061052e565b505090565b600581815481106106a757600080fd5b906000526020600020016000915054906101000a900473ffffffffffffffffffffffffffffffffffffffff1681565b6000819050919050565b6106e9816106d6565b82525050565b600060208201905061070460008301846106e0565b92915050565b600080fd5b600073ffffffffffffffffffffffffffffffffffffffff82169050919050565b600061073a8261070f565b9050919050565b61074a8161072f565b811461075557600080fd5b50565b60008135905061076781610741565b92915050565b6000602082840312156107835761078261070a565b5b600061079184828501610758565b91505092915050565b6107a38161072f565b82525050565b60006020820190506107be600083018461079a565b92915050565b6107cd816106d6565b81146107d857600080fd5b50565b6000813590506107ea816107c4565b92915050565b6000602082840312156108065761080561070a565b5b6000610814848285016107db565b91505092915050565b600082825260208201905092915050565b7f4e6f74206f776e65722000000000000000000000000000000000000000000000600082015250565b6000610864600a8361081d565b915061086f8261082e565b602082019050919050565b6000602082019050818103600083015261089381610857565b9050919050565b7f416c726561647920766f74656400000000000000000000000000000000000000600082015250565b60006108d0600d8361081d565b91506108db8261089a565b602082019050919050565b600060208201905081810360008301526108ff816108c3565b9050919050565b7f4e487b7100000000000000000000000000000000000000000000000000000000600052601160045260246000fd5b6000610940826106d6565b915061094b836106d6565b9250827fffffffffffffffffffffffffffffffffffffffffffffffffffffffffffffffff038211156109805761097f610906565b5b828201905092915050565b7f4e487b7100000000000000000000000000000000000000000000000000000000600052603260045260246000fd5b60006109c5826106d6565b91507fffffffffffffffffffffffffffffffffffffffffffffffffffffffffffffffff8214156109f8576109f7610906565b5b60018201905091905056fea2646970667358221220366491d08c262e3152c67cd44e6ab782ad0510c7b7ea2d7fb4ee56d17e08b72464736f6c63430008080033",
  "immutableReferences": {},
  "source": "// SPDX-License-Identifier: GPL-3.0\n\npragma solidity >=0.7.0 <0.9.0;\n    \ncontract election{\n        \n        uint256 public votecount;\n        address public owner;\n        uint256 public people;\n        mapping (address=>uint256) candidate;\n        mapping (address=>bool) voting;\n        address[] public standing;\n      \n     \n        constructor(uint256 no){\n            owner=msg.sender;\n            people=no;\n            \n        }\n     \n        function register(address addr) public{\n            require(msg.sender==owner,\"Not owner \");\n            candidate[addr]=0;\n            standing.push(addr);\n         \n            }\n        function vote(address add)  public  {\n            require(!voting[msg.sender],\"Already voted\");\n            candidate[add]+=1;\n            voting[msg.sender]=true;\n            \n        }\n        function peple() public view returns(uint256){\n            return people;\n        }\n        function own() public returns(address) {\n            return owner;\n        }\n        function winner() public view  returns(address winneraddress){\n                uint256  h= 0;\n             require(msg.sender==owner,\"Not owner \");\n             for(uint256 i=0;i<people;i++){\n                 \n           \n                if(candidate[standing[i]]>h){\n                    h=candidate[standing[i]];\n                    winneraddress=standing[i];\n                    \n                }\n                 \n             }\n           \n        }\n        \n    }",
  "sourcePath": "/Users/namantripathi/Desktop/election/contracts/election.sol",
  "compiler": {
    "name": "solc",
    "version": "0.8.8+commit.dddeac2f.Emscripten.clang"
  },
  "schemaVersion": "3.4.3",
  "updatedAt": "2021-10-05T13:06:30.192Z",
  "networkType": "ethereum",
  "devdoc": {
    "kind": "dev",
    "methods": {},
    "version": 1
  },
  "userdoc": {
    "kind": "user",
    "methods": {},
    "version": 1
  }
}